{
  "address": "0x1446f34cBc25d55F9Dc6124fD92bB9171f7f832F",
  "abi": [
    {
      "anonymous": false,
      "inputs": [
        {
          "indexed": true,
          "internalType": "address",
          "name": "bountyAddress",
          "type": "address"
        },
        {
          "indexed": true,
          "internalType": "address",
          "name": "owner",
          "type": "address"
        },
        {
          "indexed": false,
          "internalType": "string",
          "name": "cid",
          "type": "string"
        },
        {
          "indexed": false,
          "internalType": "uint256",
          "name": "amount",
          "type": "uint256"
        }
      ],
      "name": "BountyCreated",
      "type": "event"
    },
    {
      "inputs": [
        {
          "internalType": "address",
          "name": "_owner",
          "type": "address"
        },
        {
          "internalType": "string",
          "name": "_cid",
          "type": "string"
        }
      ],
      "name": "createBounty",
      "outputs": [
        {
          "internalType": "address",
          "name": "",
          "type": "address"
        }
      ],
      "stateMutability": "payable",
      "type": "function"
    },
    {
      "inputs": [
        {
          "internalType": "uint256",
          "name": "",
          "type": "uint256"
        }
      ],
      "name": "deployedBounties",
      "outputs": [
        {
          "internalType": "address",
          "name": "",
          "type": "address"
        }
      ],
      "stateMutability": "view",
      "type": "function"
    },
    {
      "inputs": [],
      "name": "getDeployedBounties",
      "outputs": [
        {
          "internalType": "address[]",
          "name": "",
          "type": "address[]"
        }
      ],
      "stateMutability": "view",
      "type": "function"
    }
  ],
  "transactionHash": "0xa8852b2c6e127503c8239771e32251c21f6c64f327f783834ba2c7d64a2bab4f",
  "args": [],
  "numDeployments": 1,
  "solcInputHash": "7b8cffadd158ad0710c8aa66142d631a",
  "bytecode": "0x608060405234801561001057600080fd5b506112ad806100206000396000f3fe6080604052600436106100345760003560e01c8063859e0547146100395780639d3a400a14610069578063a0bf29fa1461008b575b600080fd5b61004c61004736600461022c565b6100ab565b6040516001600160a01b0390911681526020015b60405180910390f35b34801561007557600080fd5b5061007e61017d565b60405161006091906102fc565b34801561009757600080fd5b5061004c6100a6366004610349565b6101df565b6000803484846040516100bd90610209565b6100c89291906103a8565b6040518091039082f09050801580156100e5573d6000803e3d6000fd5b50600080546001810182559080527f290decd9548b62a8d60345a988386fc84ba6bc95484008f6362f93160ef3e5630180546001600160a01b0319166001600160a01b038381169182179092556040519293508392918716917f1f1ead1908b60d36346fe29bf8cb720b57f8b219321e11e32684cf13ad09ccc49061016d90889034906103d4565b60405180910390a3949350505050565b606060008054806020026020016040519081016040528092919081815260200182805480156101d557602002820191906000526020600020905b81546001600160a01b031681526001909101906020018083116101b7575b5050505050905090565b600081815481106101ef57600080fd5b6000918252602090912001546001600160a01b0316905081565b610e81806103f783390190565b634e487b7160e01b600052604160045260246000fd5b6000806040838503121561023f57600080fd5b82356001600160a01b038116811461025657600080fd5b9150602083013567ffffffffffffffff8082111561027357600080fd5b818501915085601f83011261028757600080fd5b81358181111561029957610299610216565b604051601f8201601f19908116603f011681019083821181831017156102c1576102c1610216565b816040528281528860208487010111156102da57600080fd5b8260208601602083013760006020848301015280955050505050509250929050565b6020808252825182820181905260009190848201906040850190845b8181101561033d5783516001600160a01b031683529284019291840191600101610318565b50909695505050505050565b60006020828403121561035b57600080fd5b5035919050565b6000815180845260005b818110156103885760208185018101518683018201520161036c565b506000602082860101526020601f19601f83011685010191505092915050565b6001600160a01b03831681526040602082018190526000906103cc90830184610362565b949350505050565b6040815260006103e76040830185610362565b9050826020830152939250505056fe6080604052662386f26fc1000060065560405162000e8138038062000e818339810160408190526200003191620000dc565b60003411620000865760405162461bcd60e51b815260206004820152601c60248201527f426f756e747920616d6f756e742063616e6e6f74206265207a65726f00000000604482015260640160405180910390fd5b600080546001600160a01b0319166001600160a01b0384161790556002620000af828262000261565b505034600155506003805460ff191690556200032d565b634e487b7160e01b600052604160045260246000fd5b60008060408385031215620000f057600080fd5b82516001600160a01b03811681146200010857600080fd5b602084810151919350906001600160401b03808211156200012857600080fd5b818601915086601f8301126200013d57600080fd5b815181811115620001525762000152620000c6565b604051601f8201601f19908116603f011681019083821181831017156200017d576200017d620000c6565b8160405282815289868487010111156200019657600080fd5b600093505b82841015620001ba57848401860151818501870152928501926200019b565b60008684830101528096505050505050509250929050565b600181811c90821680620001e757607f821691505b6020821081036200020857634e487b7160e01b600052602260045260246000fd5b50919050565b601f8211156200025c57600081815260208120601f850160051c81016020861015620002375750805b601f850160051c820191505b81811015620002585782815560010162000243565b5050505b505050565b81516001600160401b038111156200027d576200027d620000c6565b62000295816200028e8454620001d2565b846200020e565b602080601f831160018114620002cd5760008415620002b45750858301515b600019600386901b1c1916600185901b17855562000258565b600085815260208120601f198616915b82811015620002fe57888601518255948401946001909101908401620002dd565b50858210156200031d5787850151600019600388901b60f8161c191681555b5050505050600190811b01905550565b610b44806200033d6000396000f3fe6080604052600436106100a75760003560e01c8063375b3c0a11610064578063375b3c0a14610186578063635ac1ed1461019c5780638c80fd90146101af5780638da5cb5b146101cf578063aa3ec0a9146101ef578063aa8c217c1461020457600080fd5b806303df2108146100ac5780631ac61d8b146100c35780631dc0a6a5146100ee5780631fc1beb014610126578063200d2ed21461013b578063373d613214610162575b600080fd5b3480156100b857600080fd5b506100c161021a565b005b3480156100cf57600080fd5b506100d861044d565b6040516100e59190610859565b60405180910390f35b3480156100fa57600080fd5b5060055461010e906001600160a01b031681565b6040516001600160a01b0390911681526020016100e5565b34801561013257600080fd5b506100c16104db565b34801561014757600080fd5b506003546101559060ff1681565b6040516100e591906108bd565b34801561016e57600080fd5b5061017860075481565b6040519081526020016100e5565b34801561019257600080fd5b5061017860065481565b6100c16101aa3660046108fb565b61068a565b3480156101bb57600080fd5b506100c16101ca3660046109ac565b6107e2565b3480156101db57600080fd5b5060005461010e906001600160a01b031681565b3480156101fb57600080fd5b506100d861084c565b34801561021057600080fd5b5061017860015481565b6000546001600160a01b031633146102795760405162461bcd60e51b815260206004820152601d60248201527f4f6e6c7920626f756e7479206f776e65722063616e20617070726f766500000060448201526064015b60405180910390fd5b600160035460ff166004811115610292576102926108a7565b146102f55760405162461bcd60e51b815260206004820152602d60248201527f4e6f207375626d697373696f6e20746f20617070726f7665206f7220616c726560448201526c18591e481c1c9bd8d95cdcd959609a1b6064820152608401610270565b6003805460ff191660021790556007805460009182905560055460015460405192936001600160a01b03909216926108fc82150292818181858888f19350505050158015610347573d6000803e3d6000fd5b5080156103cc576005546040516001600160a01b039091169082156108fc029083906000818181858888f19350505050158015610388573d6000803e3d6000fd5b506005546040518281526001600160a01b03909116907ff247ed1040aa5b17569282cc01923fbdd01401fa63e12930d59be4a5e87aa7d69060200160405180910390a25b6005546040516001600160a01b03909116907f980ea6acc037550d51bf720e04dd2f6b86c6144e4402588fb40ad2ae36d53ef290600090a26005546001546040519081526001600160a01b03909116907f221c08a06b07a64803b3787861a3f276212fcccb51c2e6234077a9b8cb13047a906020015b60405180910390a250565b6004805461045a906109c5565b80601f0160208091040260200160405190810160405280929190818152602001828054610486906109c5565b80156104d35780601f106104a8576101008083540402835291602001916104d3565b820191906000526020600020905b8154815290600101906020018083116104b657829003601f168201915b505050505081565b6000546001600160a01b031633146105355760405162461bcd60e51b815260206004820152601c60248201527f4f6e6c7920626f756e7479206f776e65722063616e2072656a656374000000006044820152606401610270565b600160035460ff16600481111561054e5761054e6108a7565b146105b05760405162461bcd60e51b815260206004820152602c60248201527f4e6f207375626d697373696f6e20746f2072656a656374206f7220616c72656160448201526b191e481c1c9bd8d95cdcd95960a21b6064820152608401610270565b6003805460ff191681179055600780546000909155801561064f57600080546040516001600160a01b039091169183156108fc02918491818181858888f19350505050158015610604573d6000803e3d6000fd5b506000546005546040518381526001600160a01b0392831692909116907f99c2ad56961cb3daf3b2b5a5a6c65dc490d85f92aa5a3974aa5e42ad715574b49060200160405180910390a35b6005546040516001600160a01b03909116907fa9da90ee71c4b5d30cc3c6876bb706f0d79be3409691c4c4ca3eddf55cd956c990600090a250565b600060035460ff1660048111156106a3576106a36108a7565b146106fb5760405162461bcd60e51b815260206004820152602260248201527f426f756e7479206973206e6f74206f70656e20666f72207375626d697373696f6044820152616e7360f01b6064820152608401610270565b6006543410156107425760405162461bcd60e51b8152602060048201526012602482015271496e73756666696369656e74207374616b6560701b6044820152606401610270565b600580546001600160a01b0319163317905560046107608282610a4e565b506003805460ff1916600117905534600781905560405190815233907f0a7bb2e28cc4698aac06db79cf9163bfcc20719286cf59fa7d492ceda1b8edc29060200160405180910390a2336001600160a01b03167f7a5abc33394d749a1c60ce992e97bc96515f7fcc173ea0908de4c36fa73df8a5826040516104429190610859565b6000546001600160a01b031633146108475760405162461bcd60e51b815260206004820152602260248201527f4f6e6c7920626f756e7479206f776e65722063616e20736574206d696e5374616044820152616b6560f01b6064820152608401610270565b600655565b6002805461045a906109c5565b600060208083528351808285015260005b818110156108865785810183015185820160400152820161086a565b506000604082860101526040601f19601f8301168501019250505092915050565b634e487b7160e01b600052602160045260246000fd5b60208101600583106108df57634e487b7160e01b600052602160045260246000fd5b91905290565b634e487b7160e01b600052604160045260246000fd5b60006020828403121561090d57600080fd5b813567ffffffffffffffff8082111561092557600080fd5b818401915084601f83011261093957600080fd5b81358181111561094b5761094b6108e5565b604051601f8201601f19908116603f01168101908382118183101715610973576109736108e5565b8160405282815287602084870101111561098c57600080fd5b826020860160208301376000928101602001929092525095945050505050565b6000602082840312156109be57600080fd5b5035919050565b600181811c908216806109d957607f821691505b6020821081036109f957634e487b7160e01b600052602260045260246000fd5b50919050565b601f821115610a4957600081815260208120601f850160051c81016020861015610a265750805b601f850160051c820191505b81811015610a4557828155600101610a32565b5050505b505050565b815167ffffffffffffffff811115610a6857610a686108e5565b610a7c81610a7684546109c5565b846109ff565b602080601f831160018114610ab15760008415610a995750858301515b600019600386901b1c1916600185901b178555610a45565b600085815260208120601f198616915b82811015610ae057888601518255948401946001909101908401610ac1565b5085821015610afe5787850151600019600388901b60f8161c191681555b5050505050600190811b0190555056fea2646970667358221220a3799001277505234c924ac4dc64f7923402e8d622d80701cbf87aef30a8d56964736f6c63430008140033a2646970667358221220ba97127cf20548288946bf1b862a5099315f76db93b0b2484c9337f7409457f264736f6c63430008140033",
  "devdoc": {
    "details": "A factory contract to create and deploy new Bounty contracts.",
    "kind": "dev",
    "methods": {
      "createBounty(address,string)": {
        "details": "Creates and deploys a new Bounty contract, funding it with the sent ETH.",
        "params": {
          "_cid": "The IPFS CID for the bounty's metadata.",
          "_owner": "The address that will own the new bounty."
        },
        "returns": {
          "_0": "The address of the newly created Bounty contract."
        }
      },
      "getDeployedBounties()": {
        "details": "Returns a list of all bounty contract addresses created by this factory."
      }
    },
    "title": "BountyFactory",
    "version": 1
  },
  "userdoc": {
    "kind": "user",
    "methods": {},
    "version": 1
  },
  "storageLayout": {
    "storage": [
      {
        "astId": 308,
        "contract": "contracts/BountyFactory.sol:BountyFactory",
        "label": "deployedBounties",
        "offset": 0,
        "slot": "0",
        "type": "t_array(t_address)dyn_storage"
      }
    ],
    "types": {
      "t_address": {
        "encoding": "inplace",
        "label": "address",
        "numberOfBytes": "20"
      },
      "t_array(t_address)dyn_storage": {
        "base": "t_address",
        "encoding": "dynamic_array",
        "label": "address[]",
        "numberOfBytes": "32"
      }
    }
  }
}