{
  "address": "0x5fbdb2315678afecb367f032d93f642f64180aa3",
  "abi": [
    {
      "anonymous": false,
      "inputs": [
        {
          "indexed": true,
          "internalType": "address",
          "name": "bountyAddress",
          "type": "address"
        },
        {
          "indexed": true,
          "internalType": "address",
          "name": "owner",
          "type": "address"
        },
        {
          "indexed": false,
          "internalType": "string",
          "name": "cid",
          "type": "string"
        },
        {
          "indexed": false,
          "internalType": "uint256",
          "name": "amount",
          "type": "uint256"
        }
      ],
      "name": "BountyCreated",
      "type": "event"
    },
    {
      "inputs": [
        {
          "internalType": "address",
          "name": "_owner",
          "type": "address"
        },
        {
          "internalType": "string",
          "name": "_cid",
          "type": "string"
        }
      ],
      "name": "createBounty",
      "outputs": [
        {
          "internalType": "address",
          "name": "",
          "type": "address"
        }
      ],
      "stateMutability": "payable",
      "type": "function"
    },
    {
      "inputs": [
        {
          "internalType": "uint256",
          "name": "",
          "type": "uint256"
        }
      ],
      "name": "deployedBounties",
      "outputs": [
        {
          "internalType": "address",
          "name": "",
          "type": "address"
        }
      ],
      "stateMutability": "view",
      "type": "function"
    },
    {
      "inputs": [],
      "name": "getDeployedBounties",
      "outputs": [
        {
          "internalType": "address[]",
          "name": "",
          "type": "address[]"
        }
      ],
      "stateMutability": "view",
      "type": "function"
    }
  ],
  "contractName": "BountyFactory",
  "sourceName": "contracts/BountyFactory.sol",
  "bytecode": "0x608060405234801561000f575f80fd5b5061123f8061001d5f395ff3fe608060405260043610610033575f3560e01c8063859e0547146100375780639d3a400a14610067578063a0bf29fa14610088575b5f80fd5b61004a61004536600461021c565b6100a7565b6040516001600160a01b0390911681526020015b60405180910390f35b348015610072575f80fd5b5061007b610175565b60405161005e91906102e5565b348015610093575f80fd5b5061004a6100a2366004610331565b6101d4565b5f803484846040516100b8906101fb565b6100c392919061038b565b6040518091039082f09050801580156100de573d5f803e3d5ffd5b505f80546001810182559080527f290decd9548b62a8d60345a988386fc84ba6bc95484008f6362f93160ef3e5630180546001600160a01b0319166001600160a01b038381169182179092556040519293508392918716917f1f1ead1908b60d36346fe29bf8cb720b57f8b219321e11e32684cf13ad09ccc49061016590889034906103b6565b60405180910390a3949350505050565b60605f8054806020026020016040519081016040528092919081815260200182805480156101ca57602002820191905f5260205f20905b81546001600160a01b031681526001909101906020018083116101ac575b5050505050905090565b5f81815481106101e2575f80fd5b5f918252602090912001546001600160a01b0316905081565b610e32806103d883390190565b634e487b7160e01b5f52604160045260245ffd5b5f806040838503121561022d575f80fd5b82356001600160a01b0381168114610243575f80fd5b9150602083013567ffffffffffffffff8082111561025f575f80fd5b818501915085601f830112610272575f80fd5b81358181111561028457610284610208565b604051601f8201601f19908116603f011681019083821181831017156102ac576102ac610208565b816040528281528860208487010111156102c4575f80fd5b826020860160208301375f6020848301015280955050505050509250929050565b602080825282518282018190525f9190848201906040850190845b818110156103255783516001600160a01b031683529284019291840191600101610300565b50909695505050505050565b5f60208284031215610341575f80fd5b5035919050565b5f81518084525f5b8181101561036c57602081850181015186830182015201610350565b505f602082860101526020601f19601f83011685010191505092915050565b6001600160a01b03831681526040602082018190525f906103ae90830184610348565b949350505050565b604081525f6103c86040830185610348565b9050826020830152939250505056fe6080604052662386f26fc1000060065560405162000e3238038062000e328339810160408190526200003191620000d8565b5f3411620000855760405162461bcd60e51b815260206004820152601c60248201527f426f756e747920616d6f756e742063616e6e6f74206265207a65726f00000000604482015260640160405180910390fd5b5f80546001600160a01b0319166001600160a01b0384161790556002620000ad828262000252565b505034600155506003805460ff191690556200031a565b634e487b7160e01b5f52604160045260245ffd5b5f8060408385031215620000ea575f80fd5b82516001600160a01b038116811462000101575f80fd5b602084810151919350906001600160401b038082111562000120575f80fd5b818601915086601f83011262000134575f80fd5b815181811115620001495762000149620000c4565b604051601f8201601f19908116603f01168101908382118183101715620001745762000174620000c4565b8160405282815289868487010111156200018c575f80fd5b5f93505b82841015620001af578484018601518185018701529285019262000190565b5f8684830101528096505050505050509250929050565b600181811c90821680620001db57607f821691505b602082108103620001fa57634e487b7160e01b5f52602260045260245ffd5b50919050565b601f8211156200024d575f81815260208120601f850160051c81016020861015620002285750805b601f850160051c820191505b81811015620002495782815560010162000234565b5050505b505050565b81516001600160401b038111156200026e576200026e620000c4565b62000286816200027f8454620001c6565b8462000200565b602080601f831160018114620002bc575f8415620002a45750858301515b5f19600386901b1c1916600185901b17855562000249565b5f85815260208120601f198616915b82811015620002ec57888601518255948401946001909101908401620002cb565b50858210156200030a57878501515f19600388901b60f8161c191681555b5050505050600190811b01905550565b610b0a80620003285f395ff3fe6080604052600436106100a5575f3560e01c8063375b3c0a11610062578063375b3c0a1461017d578063635ac1ed146101925780638c80fd90146101a55780638da5cb5b146101c4578063aa3ec0a9146101e2578063aa8c217c146101f6575f80fd5b806303df2108146100a95780631ac61d8b146100bf5780631dc0a6a5146100e95780631fc1beb014610120578063200d2ed214610134578063373d61321461015a575b5f80fd5b3480156100b4575f80fd5b506100bd61020b565b005b3480156100ca575f80fd5b506100d3610436565b6040516100e09190610837565b60405180910390f35b3480156100f4575f80fd5b50600554610108906001600160a01b031681565b6040516001600160a01b0390911681526020016100e0565b34801561012b575f80fd5b506100bd6104c2565b34801561013f575f80fd5b5060035461014d9060ff1681565b6040516100e09190610896565b348015610165575f80fd5b5061016f60075481565b6040519081526020016100e0565b348015610188575f80fd5b5061016f60065481565b6100bd6101a03660046108d0565b61066a565b3480156101b0575f80fd5b506100bd6101bf36600461097b565b6107c1565b3480156101cf575f80fd5b505f54610108906001600160a01b031681565b3480156101ed575f80fd5b506100d361082a565b348015610201575f80fd5b5061016f60015481565b5f546001600160a01b031633146102695760405162461bcd60e51b815260206004820152601d60248201527f4f6e6c7920626f756e7479206f776e65722063616e20617070726f766500000060448201526064015b60405180910390fd5b600160035460ff16600481111561028257610282610882565b146102e55760405162461bcd60e51b815260206004820152602d60248201527f4e6f207375626d697373696f6e20746f20617070726f7665206f7220616c726560448201526c18591e481c1c9bd8d95cdcd959609a1b6064820152608401610260565b6003805460ff19166002179055600780545f9182905560055460015460405192936001600160a01b03909216926108fc82150292818181858888f19350505050158015610334573d5f803e3d5ffd5b5080156103b6576005546040516001600160a01b039091169082156108fc029083905f818181858888f19350505050158015610372573d5f803e3d5ffd5b506005546040518281526001600160a01b03909116907ff247ed1040aa5b17569282cc01923fbdd01401fa63e12930d59be4a5e87aa7d69060200160405180910390a25b6005546040516001600160a01b03909116907f980ea6acc037550d51bf720e04dd2f6b86c6144e4402588fb40ad2ae36d53ef2905f90a26005546001546040519081526001600160a01b03909116907f221c08a06b07a64803b3787861a3f276212fcccb51c2e6234077a9b8cb13047a906020015b60405180910390a250565b6004805461044390610992565b80601f016020809104026020016040519081016040528092919081815260200182805461046f90610992565b80156104ba5780601f10610491576101008083540402835291602001916104ba565b820191905f5260205f20905b81548152906001019060200180831161049d57829003601f168201915b505050505081565b5f546001600160a01b0316331461051b5760405162461bcd60e51b815260206004820152601c60248201527f4f6e6c7920626f756e7479206f776e65722063616e2072656a656374000000006044820152606401610260565b600160035460ff16600481111561053457610534610882565b146105965760405162461bcd60e51b815260206004820152602c60248201527f4e6f207375626d697373696f6e20746f2072656a656374206f7220616c72656160448201526b191e481c1c9bd8d95cdcd95960a21b6064820152608401610260565b6003805460ff191681179055600780545f9091558015610630575f80546040516001600160a01b039091169183156108fc02918491818181858888f193505050501580156105e6573d5f803e3d5ffd5b505f546005546040518381526001600160a01b0392831692909116907f99c2ad56961cb3daf3b2b5a5a6c65dc490d85f92aa5a3974aa5e42ad715574b49060200160405180910390a35b6005546040516001600160a01b03909116907fa9da90ee71c4b5d30cc3c6876bb706f0d79be3409691c4c4ca3eddf55cd956c9905f90a250565b5f60035460ff16600481111561068257610682610882565b146106da5760405162461bcd60e51b815260206004820152602260248201527f426f756e7479206973206e6f74206f70656e20666f72207375626d697373696f6044820152616e7360f01b6064820152608401610260565b6006543410156107215760405162461bcd60e51b8152602060048201526012602482015271496e73756666696369656e74207374616b6560701b6044820152606401610260565b600580546001600160a01b03191633179055600461073f8282610a18565b506003805460ff1916600117905534600781905560405190815233907f0a7bb2e28cc4698aac06db79cf9163bfcc20719286cf59fa7d492ceda1b8edc29060200160405180910390a2336001600160a01b03167f7a5abc33394d749a1c60ce992e97bc96515f7fcc173ea0908de4c36fa73df8a58260405161042b9190610837565b5f546001600160a01b031633146108255760405162461bcd60e51b815260206004820152602260248201527f4f6e6c7920626f756e7479206f776e65722063616e20736574206d696e5374616044820152616b6560f01b6064820152608401610260565b600655565b6002805461044390610992565b5f6020808352835180828501525f5b8181101561086257858101830151858201604001528201610846565b505f604082860101526040601f19601f8301168501019250505092915050565b634e487b7160e01b5f52602160045260245ffd5b60208101600583106108b657634e487b7160e01b5f52602160045260245ffd5b91905290565b634e487b7160e01b5f52604160045260245ffd5b5f602082840312156108e0575f80fd5b813567ffffffffffffffff808211156108f7575f80fd5b818401915084601f83011261090a575f80fd5b81358181111561091c5761091c6108bc565b604051601f8201601f19908116603f01168101908382118183101715610944576109446108bc565b8160405282815287602084870101111561095c575f80fd5b826020860160208301375f928101602001929092525095945050505050565b5f6020828403121561098b575f80fd5b5035919050565b600181811c908216806109a657607f821691505b6020821081036109c457634e487b7160e01b5f52602260045260245ffd5b50919050565b601f821115610a13575f81815260208120601f850160051c810160208610156109f05750805b601f850160051c820191505b81811015610a0f578281556001016109fc565b5050505b505050565b815167ffffffffffffffff811115610a3257610a326108bc565b610a4681610a408454610992565b846109ca565b602080601f831160018114610a79575f8415610a625750858301515b5f19600386901b1c1916600185901b178555610a0f565b5f85815260208120601f198616915b82811015610aa757888601518255948401946001909101908401610a88565b5085821015610ac457878501515f19600388901b60f8161c191681555b5050505050600190811b0190555056fea2646970667358221220b5e16314a310b59bca385ead7c2eed781f9c5ab79b14af597f7487503dd2f2ce64736f6c63430008140033a26469706673582212203258f25e55b4644eb980725d893de4370abe3ea4369401ab0eed2cb649c2242564736f6c63430008140033",
  "linkReferences": {},
  "deployedLinkReferences": {},
  "immutableReferences": {},
  "inputSourceName": "project/contracts/BountyFactory.sol",
  "devdoc": {
    "details": "A factory contract to create and deploy new Bounty contracts.",
    "kind": "dev",
    "methods": {
      "createBounty(address,string)": {
        "details": "Creates and deploys a new Bounty contract, funding it with the sent ETH.",
        "params": {
          "_cid": "The IPFS CID for the bounty's metadata.",
          "_owner": "The address that will own the new bounty."
        },
        "returns": {
          "_0": "The address of the newly created Bounty contract."
        }
      },
      "getDeployedBounties()": {
        "details": "Returns a list of all bounty contract addresses created by this factory."
      }
    },
    "title": "BountyFactory",
    "version": 1
  },
  "evm": {
    "gasEstimates": {
      "creation": {
        "codeDepositCost": "934200",
        "executionCost": "966",
        "totalCost": "935166"
      },
      "external": {
        "createBounty(address,string)": "infinite",
        "deployedBounties(uint256)": "4621",
        "getDeployedBounties()": "infinite"
      }
    }
  },
  "storageLayout": {
    "storage": [
      {
        "astId": 308,
        "contract": "project/contracts/BountyFactory.sol:BountyFactory",
        "label": "deployedBounties",
        "offset": 0,
        "slot": "0",
        "type": "t_array(t_address)dyn_storage"
      }
    ],
    "types": {
      "t_address": {
        "encoding": "inplace",
        "label": "address",
        "numberOfBytes": "20"
      },
      "t_array(t_address)dyn_storage": {
        "base": "t_address",
        "encoding": "dynamic_array",
        "label": "address[]",
        "numberOfBytes": "32"
      }
    }
  },
  "userdoc": {
    "kind": "user",
    "methods": {},
    "version": 1
  },
  "argsData": "0x",
  "transaction": {
    "hash": "0x574b163a13ddecdb4eea627397e4cc38b4d57d7476838068d2efacd229c5b382",
    "nonce": "0x0",
    "origin": "0xf39fd6e51aad88f6f4ce6ab8827279cfffb92266"
  }
}